:020000040800F2
:10000000707D002029020008611E0008AD1D000857
:100010005D1E0008610400080D4400080000000097
:10002000000000000000000000000000751E000835
:100030007D05000800000000711E0008791E000800
:10004000430200084302000843020008430200087C
:10005000430200084302000843020008430200086C
:10006000430200084302000843020008430200085C
:10007000430200084302000843020008430200084C
:10008000430200084302000843020008430200083C
:10009000430200084302000843020008430200082C
:1000A000430200084302000843020008430200081C
:1000B000430200084302000843020008430200080C
:1000C00043020008430200084302000843020008FC
:1000D00043020008430200084302000843020008EC
:1000E00043020008430200084302000843020008DC
:1000F00043020008430200084302000843020008CC
:1001000043020008430200084302000843020008BB
:1001100043020008430200084302000843020008AB
:10012000430200084302000843020008430200089B
:10013000430200084302000843020008430200088B
:10014000430200084302000843020008651E00083D
:10015000430200084302000843020008430200086B
:10016000430200084302000843020008430200085B
:100170004302000843020008430200080000000098
:10018000430200084302000800F002F800F03CF8C7
:100190000AA090E8000C82448344AAF10107DA45E2
:1001A00001D100F031F8AFF2090EBAE80F0013F0F8
:1001B000010F18BFFB1A43F001031847D842000093
:1001C000F8420000103A24BF78C878C1FAD8520724
:1001D00024BF30C830C144BF04680C6070470000C1
:1001E0000023002400250026103A28BF78C1FBD840
:1001F000520728BF30C148BF0B6070471FB504F0DD
:1002000033F91FBD10B510BD00F0EFF81146FFF730
:10021000F5FF04F0FDF800F00DF903B4FFF7F2FF6D
:1002200003BC00F015F90000094880470948004761
:10023000FEE7FEE7FEE7FEE7FEE7FEE7FEE7FEE796
:10024000FEE7FEE704480549054A064B70470000F3
:100250002D1F000889010008701D0020707D0020FE
:10026000703D0020703D002053EA020C00F06980D0
:100270002DE9F04B4FF00006002B1FBFB3FA83F5BA
:1002800003FA05F424FA05F65E4012BF1643B2FAEB
:1002900082F502FA05F4C5F120051EBF22FA05FC1D
:1002A00044EA0C04203556EA044C4FEA144418BFC3
:1002B000641C4FF000084FF00009904271EB030CF2
:1002C00039D3002919BFB1FA81F701FA07F6B0FA5C
:1002D00080F700FA07F6C7F120071EBF20FA07FCD7
:1002E00046EA0C062037B6FBF4FCA7EB0507103FE7
:1002F00007F01F0BCBF120062CFA06F60CFA0BFBCD
:1003000044BFB3460026202FA4BF5E464FF0000B2B
:100310005BEA060C08BF4FF0010B19EB0B0948EB29
:100320000608ABFB027C06FB02CC0BFB03CCC01B1C
:1003300071EB0C01C1E70B46024641464846BDE859
:10034000F08B13B5084318BF4FF0FF300146AFF3F1
:100350000080BDE81C40704710B5431C02E010F857
:10036000011B71B18107FAD14FF0013202C88C1A1A
:100370008C4314EAC211F9D0C01A0A0603D0C01E79
:1003800010BDC01A10BD0A0401D0801E10BD0902A4
:10039000FCD0401E10BD4FF0000200B5134694463D
:1003A0009646203922BFA0E80C50A0E80C50B1F1CD
:1003B0002001BFF4F7AF090728BFA0E80C5048BFE1
:1003C0000CC05DF804EB890028BF40F8042B08BF7F
:1003D000704748BF20F8022B11F0804F18BF00F87B
:1003E000012B7047704770477047754600F02CF836
:1003F000AE4605006946534620F00700854618B012
:1004000020B5FFF71FFFBDE820404FF000064FF07A
:1004100000074FF000084FF0000BAC46ACE8C009F5
:10042000ACE8C009ACE8C009ACE8C00921F007019C
:100430008D46704710B50446AFF300802046BDE8F6
:100440001040FFF7EABE000000487047F8000020A7
:1004500001491820ABBEFEE72600020070470000ED
:10046000FEE7000080B521281AD020282AD141F2C9
:100470007C500A78C2F2000002700A794B7891F839
:1004800002C091F803E002714A798979437080F8DB
:1004900002C080F803E042718171002080BD00BF7E
:1004A00041F27C50C2F2000002780A7042784A7031
:1004B00082788A70C278CA7002790A7142794A7168
:1004C00080798871002080BD0020704710B541F20E
:1004D0008454C2F2000440F67C51C2F2000120466E
:1004E000002201F0FBFE40F27C51C2F200012046E6
:1004F00001F0E6FE002010BD70B541F284560446BE
:10050000C2F200060D463046214601F0D9FE3046C3
:1005100001F0B0FED6F8BC022A88D0F8140208B167
:10052000002070BD41F28455C2F2000528462146E4
:1005300001F0D4FE284601F061FF002070BD0000EC
:100540000020704710B541F28452C2F20002D2F886
:10055000BC22D2F81432002B1CBF012010BD41F286
:100560008454C2F200040A460146204601F0B6FE59
:100570002046BDE8104001F041BF00007047000078
:10058000EFF3108072B600BFFEE70000B0B504467E
:1005900000F0E4F8054640F20000C2F200000078E6
:1005A000611C18BF044400BF00F0D8F8401BA042F3
:1005B000FAD3B0BD2DE9F04F82B000F13E4241F6D2
:1005C000004502F1FF77C4F20205082243F6004E0F
:1005D0004FEAB726A84208BF0722C4F2010E072E31
:1005E00038BF4FEAB7220125002600274FF0000848
:1005F000009208E008F101080437B8F1100F06F185
:10060000020600F0A7800C6805FA08F914EA090F41
:10061000F0D0D1F804B003220BF0030CACF10104CC
:10062000B240012C6FEA020A10D88268CC6802EA54
:100630000A02B440224382604268CBF3001422EAEB
:10064000090204FA08F42243426005E0BCF1030FFA
:1006500002D14FF0030C20E0C2688C6802EA0A0263
:10066000B4402243BCF1020FC26016D16FF0030206
:1006700002EA58020244D2F820C007F01C050F23FA
:100680000C69AB402CEA030304FA05F52B43136213
:10069000D1F804B001250BF0030C02680CFA06F344
:1006A00002EA0A021A431BF4403F0260A2D0002271
:1006B00043F644030192C4F202031A684FF6084C51
:1006C00042F480421A601A68CFF6FF7C02F480423E
:1006D0000192019A28F00302724452F80C3007F09C
:1006E0000C050F24AC40A343009C04FA05F52B43F2
:1006F00042F80C30DEF808204B6842EA090543F660
:100700000C4CDC0258BF22EA0905CEF80850C4F2AE
:10071000010CDCF800209C0242EA090558BF22EADD
:100720000905CCF80050DEF804209C0342EA0905D4
:1007300058BF22EA0905CEF80450DEF80020DB039A
:1007400042EA090558BF22EA0905CEF80050012502
:1007500050E700BF02B0BDE8F08F000041F66C50DA
:10076000C2F200000068704740F2000041F66C5190
:10077000C2F20000C2F2000100780A68104408606A
:100780007047000080B543F60040C4F202000168E3
:1007900041F400710160016841F480610160016809
:1007A00041F480710160032000F08AF8002000F01D
:1007B00005F800F027F8002080BD000070B540F279
:1007C0000006C2F2000640F224013278C2F20001B3
:1007D0004FF47A730968B3FBF2F20446B1FBF2F10D
:1007E000084601F0CDFA0F2C4FF0010508D838B9B2
:1007F0004FF0FF3021460022002500F035F87460EC
:10080000284670BD82B0002043F640010190C4F23A
:1008100002014A6842F480424A604A6802F4804217
:100820000192019A0090086840F0805008600868C2
:1008300000F0805000900098072002B000F040B80F
:10084000002848BF7047C1B200F01F00012202FA21
:1008500000F04EF20012CEF2000242EAD10121F085
:10086000030108607047000010B54EF60C5CCEF234
:10087000000CDCF80030C3F3022E8EF00704042CC9
:1008800028BF0424BEF103034FF0FF3E0EFA04F428
:1008900038BF0023A14399400EFA03F39A43114352
:1008A00000F00F0200F160430901043A03F56443CC
:1008B0006244002848BF02F10C03197010BD00000B
:1008C0004EF60C51CEF200010A684FF6FF031A40B3
:1008D00060F30A2242F0806040F0FD7008607047CB
:1008E0007047000002680020516270472DE9F04314
:1008F000D0F80090D9F82400A1B1D9F82830B1F18E
:10090000010800EB13435DD0A8F10100C0B2032839
:1009100008F0030C0ED24FF0010E0027BCF1000FBF
:1009200033D14FE040EA0240C9F828000020BDE87A
:10093000F08300BF08F0FC0E09F1F404002009F573
:10094000827500BF54F8107F064603EB174046F04F
:100950000103DBB246F0020755F82330FFB255F829
:10096000277000EB134000EB174346F00300C0B2C2
:1009700055F82010301DC7B2774503EB1143E1D184
:1009800006F1050EBCF1000F1CD009EB8700D0F872
:100990000401BCF1010F03EB104313D05FFA8EF09A
:1009A00009EB8000D0F80401BCF1020F03EB104307
:1009B00008D00EF10100C0B209EB8000D0F80401AC
:1009C00003EB104343EA024009EB8801C1F804013C
:1009D0000020BDE8F0830000D0F8080502F024B83C
:1009E00001EBC102D0F8083500EB8200C26C18465A
:1009F00001F082BF01EBC102D0F8083500EB8200A4
:100A0000D0F88C22184601F0D3BF0000D0F80805BA
:100A100002F00CB810B5044648B2B0F1FF3F01F047
:100A20000F0000EBC00104EB810205DD02F51F7130
:100A3000002382F87D3204E0012302F13C0182F8B8
:100A40003D3094F8BC240870012A04BF022010BD78
:100A50002068012284F8BC2402F0A8FD002084F85C
:100A6000BC0410BDB0B54268044601F00F008242DC
:100A70003CBF0120B0BD49B2B1F1FF3F0ADD00EB40
:100A8000C00104EB810202F51F71002382F87D3260
:100A900009E000BF00EBC00104EB8102012302F179
:100AA0003C0182F83D3094F8BC240025012A8D7069
:100AB000087004BF0220B0BD2068012284F8BC2465
:100AC00003F0D6F8284684F8BC54B0BD01F00F01FD
:100AD00001EBC10100EB8100D0F89C0270470000DF
:100AE00070B5064648B2B0F1FF3F01F00F0000EBD1
:100AF000C00107DD06EB810404F51F71002584F8B1
:100B00007D5206E006EB810C01240CF13C018CF8CF
:100B10003D404D780870002DCA600B7118BF0881E8
:100B2000022B04BF0020487196F8BC04012804BFC2
:100B3000022070BD3068012286F8BC2402F0F4FB6C
:100B4000002086F8BC0470BD80B501F00F0C0CEBE2
:100B5000CC0100EB810ECEF894320023CEF89C320B
:100B60008EF87D320369CEF88C22012B8EF87CC280
:100B700008BFCEF8902200680EF51F71DAB2BCF102
:100B8000000F03D003F0BEF8002080BD02F0C4FFC8
:100B9000002080BDB0B50446406801F00F058542D5
:100BA00084BF0120B0BD48B2B0F1FF3F0ADD01EBC8
:100BB000C10004EB800000F51F71002280F87D2247
:100BC00009E000BF05EBC50004EB8000012200F145
:100BD0003C0180F83D2094F8BC04012201288A7071
:100BE0000D7004BF0220B0BD206884F8BC2403F05F
:100BF00069F81DB1002084F8BC04B0BD2068217CD8
:100C000004F2C44203F006F8002084F8BC04B0BD2E
:100C100010B501F00F0C0CEBCC0100EB810E71460E
:100C200001F83CCF8B6100230B62036901244C70F7
:100C3000012B0A6108BFCEF850200068DAB2BCF17F
:100C4000000F03D003F05EF8002010BD02F064FF37
:100C5000002010BD2DE9F04F89B0056806462846F2
:100C600003F042FA10B109B0BDE8F08F306803F02C
:100C700069FA0028F7D0D5F80808C0F30D213068CC
:100C8000C6F8FC1403F05EFA01463068890703D504
:100C9000416901F00201416105F5006703F052FA74
:100CA00001463068C906089604953CD5816921F053
:100CB000100181612C6AC4F34340062804F00F053B
:100CC0001AD0022829D147F6F07014EA000824D07F
:100CD00005EBC50006EB8009D9F88C124FEA181411
:100CE0000498224603F032FAD9F88C0200EB18106F
:100CF000C9F88C0208E000BF049806F2C44108223B
:100D000003F024FAC4F30A1405EBC50006EB8000D7
:100D1000D0F89C122144C0F89C123068816941F0DF
:100D200010018161049D039703F00CFA000340F168
:100D3000EB800898006803F0E3F9002800F0E480F5
:100D4000064608984FF4306400F2C44100F5277855
:100D50004FF0000B079118E02819022181605FEA2B
:100D60008A6042BF2819202181605FEA8A4042BF21
:100D700028194FF4005181600BF1010B760804F142
:100D8000200408F1240800F0BF80F007F4D0089890
:100D90005FFA8BF90068494603F0CCF98246C00738
:100DA00062D0281901218160089F38682118036CDE
:100DB0008A683F69012F29D1170735D4970600F1BA
:100DC0009B8012F0280F4FD143F20B07C4F65477E3
:100DD000BB4202D312F400422FD158F8042C096907
:100DE000BBF1000F6FF3DF41A2EB0101C8F8001067
:100DF00035D1089BD3F89422002A00F08380D3F8E1
:100E00008C020844C3F88C0229E000BF43F20B07B0
:100E1000C4F65477FF37BB4216D110040DD49006A8
:100E200044BF202088601AE043F20B00C4F65470DF
:100E3000834219D312F4004016D04FF4004088606A
:100E40005FEA0A7013D437E0BBF1000F07D10899AD
:100E5000D1F8941219B90021079A02F0DBFE089824
:100E60004946FFF7C7FD00BF5FEA0A7024D528197D
:100E700008218160089843F20B020068C4F654729E
:100E8000056C20448168571EBD4205D911F400410C
:100E90001CBF4FF400418160089800F089FCBD42FE
:100EA000049D09D908980069012805D10898079A76
:100EB0000068012102F0AEFE5FEACA6042BF281955
:100EC000102181605FEA8A707FF549AF686900068A
:100ED00004D50399486840F48060486018F81D0CF8
:100EE00001287FF439AF002008F81D0C0898494606
:100EF00000F048FB30E700BF202088605FEA0A70FE
:100F0000B5D4D9E70121A7E7DDF820B0DBF8000070
:100F100003F018F9400340F1D580DBF8000003F03E
:100F2000E7F8002800F0CE80824605F510600290B8
:100F30000BF2C4400027019006E000BF5FEA5A0AA6
:100F400007F1010700F0BE805FEACA70F6D0DBF857
:100F50000000F9B2079103F0DBF8029E0446C007D7
:100F600026D0039A07F00F00516B012303FA00F01B
:100F700021EA0000506306EB47108360DBF81000A5
:100F8000012811D107EBC7000BEB8000D0E912124A
:100F90001144C16447B9DBF8540028B9DBF80000FC
:100FA000019A012102F036FE07995846FFF718FD15
:100FB000200742BF06EB471008218160E00642BFD0
:100FC00006EB471010218160600642BF06EB471018
:100FD00040218160A00715D52846394603F01AF84C
:100FE00007EBC7000BEB800010F83F1F012905D16C
:100FF000002101700799584600F0C0FA06EB47102F
:1010000002218160200699D507EBC7000BEB800217
:10101000914659F8541FC84658F8080F81428DD39D
:10102000DBF8006093465BF8485F0B1AAB4238BFB1
:101030001D46069606EB4713D3F818C905F1030EB3
:101040001FFA8CF5B5EB9E0F28D303F5106102F162
:101050004C050591D9F8001081421FD9DBF80040FA
:10106000089A081AA0422968167C38BF0446DDE9B0
:101070000602A3B2009603F093F92868D8F800108E
:101080002044286008190599C8F800008969E21C05
:1010900089B2B1EB920FDDD2D9F80010DDF820B0A3
:1010A000049D81423FF64AAF069B07F00F00D3F83C
:1010B0003418012202FA00F021EA0000C3F83408D3
:1010C0003CE700BFDBF8000003F03CF8002825D423
:1010D000DBF80000DDF80C8003F034F800053ED4A6
:1010E000DBF8000003F02EF8C00449D5D8F804005E
:1010F000102120F00100C8F80400DBF8000002F025
:1011000089FFDBF80400002800F0F780411E032966
:1011100000F0030C38D20021A2E000BFDDF80C8003
:10112000D8F8040020F00100C8F804009BF8F4048B
:10113000012807D100208BF8F40458460021FFF75E
:10114000CFFB02E0584600F017FBDBF800004169D6
:1011500001F00041416102F0F5FF0005C0D5D8F86B
:101160000800C00702D0584600F04AFBDBF8000038
:10117000416901F40061416102F0E4FFC004B5D4AB
:10118000DBF80000EDE000BF20F0030E05F536634C
:101190004FF6A0564FF6C0554FF6E0544FF600609C
:1011A00000214FF67F37CFF6FF76CFF6FF75CFF6EB
:1011B000FF74CFF6FF7000BFA3F5187297609A59BD
:1011C000043122F400129A5143F8587C53F8602CF1
:1011D0008E4522F4001243F8602C53F8602C42F044
:1011E000006243F8602CA3F5107297605A5922F4FC
:1011F00000125A5143F8387C53F8402C22F4001264
:1012000043F8402C53F8402C42F0006243F8402C45
:10121000A3F5087297601A5922F400121A5143F884
:10122000187C53F8202C22F4001243F8202C53F899
:10123000202C42F0006243F8202CA3F50072976046
:101240001A5822F400121A509F601A6822F40012F1
:101250001A601A6842F000621A6003F18003ABD191
:10126000049DBCF1000F48D005F5106000EB411261
:101270004FF67F334F019360C65905F5306226F46F
:101280000016C65102EB4116B360D659BCF1010FEE
:1012900026F40016D651D65946F00066D6512CD009
:1012A0004F1C00EB47157E01AB60855902EB4717D9
:1012B00025F400158551BB609359BCF1020F23F44E
:1012C00000139351935943F00063935115D00231A9
:1012D00000EB41174FF67F364B01BE60C75827F42D
:1012E0000017C75002EB41108660D05820F4001060
:1012F000D050D05840F00060D050D8F81C0040F0DA
:101300000110C8F81C00DBF8300048B1D8F88400A0
:1013100040F00B00C8F8840008F1440009E000BF69
:10132000D8F8140042F22B010843C8F8140008F161
:10133000100001680BF2C44241F00B010160D8F8C3
:10134000000020F4FE60C8F80000DBF800009BF805
:10135000101002F05FFCDBF80000416901F48051DD
:10136000416102F0EFFE0146DBF8000089041AD566
:1013700002F01CF8DBF8000002F0A8FEDBF80040E9
:10138000CBF80C0000F006FB9BF80C200146204631
:1013900002F076FF584600F0D9F9DBF80000416909
:1013A00001F40051416102F0CDFE000706D4DBF8E4
:1013B000000002F0C7FE00060DD435E0584600F0EC
:1013C000DFF9DBF80000416901F00801416102F03A
:1013D000B9FE000628D50499886920F0800088614C
:1013E000DBF8040002281FD3012440F2A32504E007
:1013F0000134844205F1240516D21BF80510012999
:10140000F6D104F00F0000EBC0000BEB80022006C9
:10141000DBF8000002F13C0158BF02F51F7102F039
:1014200069FDDBF80400E3E7DBF8000002F08AFE68
:10143000C0024FD4DBF8000002F084FE049D80025D
:1014400040F17E80DBF8041002292AD305F53260D2
:1014500001390BF52972012305E000BF2030013965
:1014600002F124021DD007681678012EF6D1B7F1DB
:10147000FF3FF3DCDBF8FC6407F4803706F001067D
:10148000B742EBD102F8013CAF6947F08007AF618A
:101490006F693F06E2D4D8F8040040F40070C8F841
:1014A0000400DBF80000416901F40011416102F021
:1014B00049FE40004AD55846FFF78EFADBF8000097
:1014C000416901F08041416102F03CFE40077FF537
:1014D000CAAB42E0DBF80400022825D304990BF1E3
:1014E000640501F512640126012705E00137203467
:1014F000874205F1240517D221682A78012AF5D1FF
:10150000B1F1FF3FF2DC07F00F0000EBC0000BEB86
:101510008001DBF800003C3105F8016C02F0EAFCC8
:10152000DBF80400E2E700BFDBF80000416901F4EA
:101530008011416102F006FE049D80023FF582AFFA
:10154000DBF8000002F0FEFD4000B4D4DBF8000040
:1015500002F0F8FD40077FF586ABDBF80000446839
:10156000610704D55846FFF751FADBF800004168DF
:101570002143416009B0BDE8F08F0000D0F80805B4
:1015800001F0B2BAD0F8080501F0C2BA2DE9F04F67
:101590008BB0002800F086800446056890F8BD04F2
:1015A00028B9002084F8BC04204600F08FF80320FE
:1015B00084F8BD04E86BC0055CBF00202061206892
:1015C00002F0A2FA206804F11C0A0A90D4E90C5037
:1015D00004F1040E9AE8C0079EE80E58CDE90850C1
:1015E00003A880E8C0030A988DE80058CDF81CA035
:1015F00001F0ECFE002852D120680021002502F005
:10160000FBFD616861B301200023002203EBC303EB
:1016100004EB830787F83C20D3B20132A7F84430AB
:10162000D3B2994287F83D0087F84050C7E9125578
:101630007D65EBD800200023002200BF03EBC3032D
:1016400004EB830787F87C220132D3B2994287F8F2
:101650007D0287F88002C7E9A200C7F89402EDD89E
:10166000A06822680A90D4E90C5004F1140E04F129
:10167000240AD4E903379EE840589AE80007CDE9E8
:10168000085002A880E8005810460A9ACDE9007672
:10169000CDE90589CDF81CA001F0ECFF40B1022096
:1016A00084F8BD04012528460BB0BDE8F08F00BFCB
:1016B0000025012084F8385084F8BD04206801F02A
:1016C000C9FF28460BB0BDE8F08F0000B0B586B06A
:1016D0000068B0F1A04F01D006B0B0BD002543F6C0
:1016E00030040195C4F20204206801A940F0010011
:1016F0002060206800F00100019001984FF4C05074
:1017000001900220CDE90205032004900A200590F3
:101710000020C4F20200FEF74DFF6068002140F097
:101720008000606000956069002240F48040606144
:10173000606900F48040009000984320FFF794F81F
:101740004320FFF77DF806B0B0BD000010B5044699
:10175000C06828B1022818BFFEF712FF012100E07F
:101760000021D4F8080501F059FAD4F80805BDE8BD
:10177000104001F007BA0000D0F8080501F036BAB1
:10178000D0F8080501F03CBA10B5044690F8BC0446
:10179000012804BF022010BD012084F8BC0484F895
:1017A0003810206802F05AFD002084F8BC0410BDF7
:1017B000D0F8082500F2C441104601F045BA0000F7
:1017C00010B5044690F8BC04012804BF022010BDE7
:1017D000A16A20680122012984F8BC2406D1A169EC
:1017E000012903D0816B41F48031816302F00AFC4E
:1017F000206801F01FFF002084F8BC0410BD000029
:1018000010B50446D0F8080501F074FA2068D0F845
:10181000001E41F00101C0F8001E206A002808BF28
:1018200010BD4EF61050CEF20000016841F00601E6
:10183000016010BD2DE9F041002800F08B8043F6D7
:101840000808C4F202080446D8F8F8030D4600F070
:101850000700884207D288F8F853D8F8F80300F058
:101860000700A84276D12068810717D5410705D522
:10187000D8F8001041F4E051C8F80010010705D570
:10188000D8F8001041F46041C8F80010D8F80010F2
:10189000A26821F0F0011143C8F80010C0073FD141
:1018A000D8F8F80300F00700A84207D988F8F853E1
:1018B000D8F8F80300F00700A8424BD12068410790
:1018C00007D5D8F80010E26821F4E0511143C8F8B8
:1018D0000010000708D5D8F80000216920F4604006
:1018E00040EAC100C8F8000000F05AF8D8F800102B
:1018F00044F28242C1F30311C0F60002515C40F28F
:10190000240220FA01F140F20400C2F20000006853
:10191000C2F200021160FEF751FF0020BDE8F08125
:101920006068811E022907D258F8081C89015CBF33
:101930000120BDE8F08111E0012807D158F8081C0A
:1019400089035CBF0120BDE8F08107E058F8081C5E
:10195000890703D40120BDE8F08100BFD8F800104A
:1019600021F003010843C8F80000FEF7F7FE064621
:1019700041F28837D8F80000616800F00C00B0EB45
:10198000810F8DD0FEF7EAFE801BB842F2D903200A
:10199000BDE8F08140F22400C2F200000068704708
:1019A00010B543F60404C4F20204606800F00C01B0
:1019B00042F200400829C0F2F40007D0042918BF01
:1019C00010BD41F20020C0F27A0010BD216801F084
:1019D0003F02216823684902C3F3881106D4A1FBA2
:1019E00000010023FEF740FC07E000BF41F20020A9
:1019F000C0F27A004843B0FBF2F021680222C1F342
:101A0000014102EB4101B0FBF1F010BD2DE9F041C5
:101A100082B0002868D00446007843F60006C0076C
:101A2000C4F202060BD0B06800F00C00042840F0AD
:101A30009F803068800302D56068002854D02078E9
:101A400080071AD5B06810F00C0F09D0B06800F00C
:101A50000C00082840F0A6807068400200F1A280C7
:101A60003068800702D5E06801283DD130682169DF
:101A700020F0F80040EAC10030602078000737D439
:101A8000207840074CD4A56955B3B06800F00C002D
:101A9000082840F0BB80012D26D07068E16900F471
:101AA00080028A4220D1216A00F03F028A421BD183
:101AB00047F6C071626A0140B1EB821F14D1A16A7E
:101AC0004FF6FF73C903994300F44032A1F580310A
:101AD0008A4209D1E16A00F07060B0EB016F03D176
:101AE000002002B0BDE8F081012002B0BDE8F08125
:101AF0006069002840F20000C4F2472076D001213E
:101B0000C0F8801EFEF72AFE054600BF706F8007F2
:101B1000B6D4FEF723FE401B0228F7D9DDE000BF54
:101B2000306C10F080580AD100200190306C40F0E9
:101B300080503064306C00F080500190019847F282
:101B40000007C4F200073868C00541D4386840F483
:101B500080703860FEF702FE054600BF3868C00599
:101B600036D4FEF7FBFD401B0228F7D9B5E000BFD5
:101B7000B06800F00C00082803D1706840023FF5FF
:101B800058AF6068B0F5803F07D0B0F5A02F40F0A7
:101B90008D80306840F480203060306840F48030C0
:101BA00030608DE0E068002852D00020C4F2472069
:101BB00001210160FEF7D2FD054600BF30688007B5
:101BC0003FF554AFFEF7CAFD401B0228F6D984E06A
:101BD000A068012805D005284ED1306F40F00400E0
:101BE0003067306F40F0010030674FE00021C0F8EF
:101BF000801EFEF7B3FD0546706F80077FF540AF8E
:101C0000FEF7ACFD401B0228F6D966E00027C4F2BF
:101C1000472700203866FEF7A1FD022D05460BD1AF
:101C2000306880015ED5FEF799FD401B02284FF019
:101C30000300F5D955E700BF306880017FF550AF4C
:101C4000FEF78CFD401B02284FF00300F4D948E753
:101C50000020C4F2472000210160FEF77FFD054609
:101C6000306880077FF509AFFEF778FD401B02283A
:101C70004FF00300F4D934E7316F002821F001015F
:101C80003167316F21F0040131674DD0FEF766FDF9
:101C9000054641F2883700BF306F800756D4FEF703
:101CA0005DFD401BB842F7D917E000BF316800283E
:101CB00021F480313160316821F4802131604FD0CE
:101CC000FEF74CFD054600BF306880033FF5B7AE18
:101CD000FEF744FD401B6428F6D9032002B0BDE89E
:101CE000F08100BF04F11C052FCD084340EA8210AB
:101CF000D9034FF6FF729143A1F5803140EA0560A8
:101D00000843706001203866FEF728FD044600BFD6
:101D1000306880013FF5E4AEFEF720FD001B02288D
:101D20004FF00300F4D9DCE6FEF718FD054641F25A
:101D3000883700BF306F800708D5FEF70FFD401BC6
:101D4000B8424FF00300F5D9CBE600BFB8F1000F61
:101D50007FF499AE306C20F08050306493E600BF81
:101D6000FEF7FCFC054600BF306880037FF567AED8
:101D7000FEF7F4FC401B64284FF00300F4D9B0E6F2
:101D8000411E0020B0EB116F1CBF012070474EF2C6
:101D90001002CEF2000251604EF62351CEF2000145
:101DA000F0230B700721906011607047FEE7000080
:101DB00082B0002043F630010190C4F202010A68AB
:101DC00042F080020A600A6802F080020192019AE1
:101DD0000090086840F001000860086800F0010009
:101DE0000090009802B0704780B541F2845040F2F4
:101DF0000801C2F20000C2F20001002200F042FD20
:101E0000002818BFFEF7BCFB41F2845040F22801C5
:101E1000C2F20000C2F2000100F094FF002818BFD7
:101E2000FEF7AEFB41F2845040F2C401C2F2000062
:101E3000C2F2000100F038FA002818BFFEF7A0FB3C
:101E400041F28450C2F2000000F0A6FF002808BF53
:101E500080BDBDE88040FEF793BB0000FEE70000B8
:101E6000FEE7000041F66000C2F20000FEF7F2BE9D
:101E70007047000070470000FEF776BC10B592B0C6
:101E8000002043F64001CDE90A00CDE908000590A5
:101E9000CDE90300CDE901000090C4F202010A6817
:101EA000022442F080520A60096801F080510091DA
:101EB0000099009047F20000C4F20000016841F46C
:101EC00080410160006800F480400090009801208B
:101ED00006904FF4803007904FF480000D9004205E
:101EE0000E90A820CDE90F040720119006A80C94AD
:101EF000FFF78CFD20B1EFF3108072B6FEE700BF54
:101F00000F20CDE90104802003904FF48050CDE9EB
:101F1000040001A80221FFF78DFC28B1EFF3108027
:101F200072B600BFFEE700BF12B010BD4EF688507B
:101F3000CEF20000016841F47001016070470000BA
:101F4000B0B5D0F8D42200EB8202D2F8C0323BB355
:101F500001F00F058C4605EB850100EB810151F87E
:101F6000184F64B1D0F8C8E205EBC5050EEB850546
:101F7000D5F848E0B4FBFEF505FB1E4595B10024FD
:101F8000C3F81442D2F8C402056935B1D3F8080287
:101F900003F504716246A84700242046B0BD00BF87
:101FA0000320B0BD00240C6061460022002300F035
:101FB000ABFE2046B0BD0000B0B50446D0F8D40258
:101FC00004EB8000D0F8C05295B1204600F03EFDF1
:101FD000D4F8D412C5F80C0204EB8101D1F8C41274
:101FE000D5F80402CA6805F5037190470020B0BD1A
:101FF0000320B0BD70B58121044600F06BFC0025C4
:1020000020460121258700F065FC20468221A4F8A6
:10201000785100F05FFCD4F8D402E56404EB800052
:10202000D0F8C01289B1D0F8C40240688047D4F813
:10203000D40204F5307656F8200001F06DF9D4F89A
:10204000D40246F82050C4F8BC52002070BD0000F5
:1020500010B5D0F8D41200EB8100D0F8C0428CB19A
:10206000D0F8C41281B194F80002FF280CD08B681C
:1020700094F8012221469847FF2084F800020020AE
:1020800010BD00BF032010BD002010BD014640F26E
:10209000A4000A22C2F200000A807047F0B581B0A5
:1020A00040F26007C2F2000704463846822100F081
:1020B0003BFB06463846012100F036FB0546384614
:1020C000812100F031FB002E1CBF1021B171002DC9
:1020D0001CBF4021A98000281CBF402181804321D2
:1020E00040F26000C2F20000218001B0F0BD0000AB
:1020F000F0B581B040F26007C2F2000704463846EE
:10210000822100F011FB06463846012100F00CFB4D
:1021100005463846812100F007FB002E1CBF102128
:10212000B171002D1CBF4FF40071A98000281CBFA5
:102130004FF400718180432140F26000C2F2000040
:10214000218001B0F0BD0000F0B581B040F2600721
:10215000C2F2000704463846822100F0E5FA06463E
:102160003846012100F0E0FA05463846812100F0AA
:10217000DBFA002E1CBF1021B171002D1CBF4021C5
:10218000A98000281CBF40218180432140F26000CB
:10219000C2F20000218001B0F0BD00002DE9F04145
:1021A00004464FF4077001F0B9F800284ED04FF400
:1021B00007710546FEF7EFF8D4F8D402402704EB88
:1021C0008000C0F8C052207CC4F8BC52002808BF70
:1021D0004FF400772046812102223B46022600F080
:1021E000ABFC4FF001082046012102223B46A4F837
:1021F000388000F0A1FC1020A4F84E002046822177
:1022000003220823A4F8788100F096FCD4F8D402C5
:102210000027C5F8047204EB8000D0F8C402A4F8CB
:102220004C8000688047C5F81472C5F81872D5F85C
:1022300004223AB1207C98B120460121402300F0CD
:102240008FFC00263046BDE8F08100BFD4F8D402F0
:10225000002104EB8000C0F8C0120220BDE8F0812C
:10226000204601214FF4007300F07AFC0020BDE805
:10227000F081000080B5D0F8D41200EB8101D1F8D4
:10228000C01279B190F810C0D1F804224023012186
:10229000BCF1000F08BF4FF4007300F061FC002098
:1022A00080BD00BF032080BD00290FBF0320D0F8F0
:1022B000D42200EB8200C0F8C41218BF002070477F
:1022C000D0F8D42200EB8200D0F8C00200280EBF64
:1022D0000320C0F80412002070470000D0F8D43268
:1022E00000EB8300D0F8C00200280FBF0320C0F825
:1022F0000812C0F8102200207047000070B582B0AC
:102300000446D0F8D4020D4604EB8000D0F8C06239
:1023100000218DF80710ADF80410DEB1297811F016
:1023200060021BD0202A61D1EA88002A2ED049B24F
:10233000B1F1FF3F36DD6878314686F8000220466D
:10234000402A28BF402286F8012200F0A1F800268A
:1023500018E000BF0326304602B070BD68780B2835
:1023600044D80026DFE800F0060E424242424242D4
:1023700042422C3A94F89C02032837D101A9204606
:10238000022225E0304602B070BD00BFD0F8C40282
:10239000294683686878002200269847304602B0B4
:1023A00070BD00BFD0F8C402314683686878984792
:1023B000EA8820463146072A28BF072208E000BFE6
:1023C00094F89C02032811D10DF107012046012247
:1023D00000F078F80026304602B070BD94F89C02F8
:1023E000032803D10026304602B070BD204629469E
:1023F00000F042F80326304602B070BD80B5D0F838
:10240000D41200EB8101D1F8C0223AB1D2F81412F3
:1024100000294FF0010103D0084680BD032080BD94
:10242000C2F81412D2F81032D2F808228121C36205
:1024300000F06AFC0021084680BD000080B5D0F89D
:10244000B82252689047002818BF032080BD0000C2
:10245000002070470020704780B513460A460021CF
:1024600000F07EFB002080BD80B513460A460021A7
:1024700000F04AFC002080BD10B58021044600F029
:1024800015FC20460021BDE8104000F00FBC000004
:1024900080B513460A460321C0F894120021C0E912
:1024A000563300F05DFB002080BD000080B50521A3
:1024B000C0F8941200210022002300F051FB0020FC
:1024C00080BD000080B513460A460221C0F8941270
:1024D0000021C0E9063300F017FC002080BD000099
:1024E00080B50421C0F8941200210022002300F0DE
:1024F0000BFC002080BD000010B540F25C14C2F25D
:1025000000040A4602A0214600F04EF9204610BD04
:1025100043444320436F6E666967000040F2B00099
:102520001222C2F200000A807047000010B540F28B
:102530005C14C2F200040A4602A0214600F034F9FD
:10254000204610BD43444320496E74657266616342
:102550006500000040F2D8000422C2F200000A80A8
:102560007047000010B540F25C14C2F200040A4645
:1025700002A0214600F018F9204610BD53544D69C1
:1025800063726F656C656374726F6E69637300006C
:1025900010B540F25C14C2F200040A4602A02146C3
:1025A00000F002F9204610BD446961676E6F7374D4
:1025B000696344657669636500000000B0B547F65D
:1025C0001020C1F6FF70026883684FF01A0C9B1848
:1025D000A1F800C000F0A3804FF0370C1A0F0CEBED
:1025E00013714068B3F1204F38BF02F1300140F25F
:1025F000DC02C2F20002917019014FF0000E0CEBE8
:10260000117582F803E0C3F30364B1F1204F38BFC2
:1026100004F13005190215710CEB117582F805E013
:10262000C3F30354B1F1204F38BF04F1300519034F
:1026300095710CEB117582F807E0C3F30344B1F117
:10264000204F38BF04F13005190415720CEB1175D9
:1026500082F809E0C3F30334B1F1204F38BF04F12D
:102660003005190595720CEB117582F80BE0C3F378
:102670000324B1F1204F38BF04F13005190615735A
:10268000C3F303140CEB1175B1F1204F4FEA037142
:1026900003F00F0382F80DE038BF04F1300503F1B9
:1026A0003704957382F80FE0B1F1204F38BF03F182
:1026B0003004010F0CEB1073147482F811E0B0F1C8
:1026C000204F38BF01F1300301010CEB11749374FA
:1026D00082F813E0C0F30363B1F1204F38BF03F178
:1026E000300401021475C0F303530CEB1174B1F103
:1026F000204F4FEA003182F815E038BF03F1300473
:102700000CEB1173947582F817E0C0F30340B1F13C
:10271000204F38BF00F13003137682F819E040F201
:10272000DC00C2F20000B0BD80B5B0F802C0037892
:102730009C4509D8002080BD82788A4208BF80BDB0
:1027400073449AB262452DD290F800E0704442780A
:10275000052A02D182788A4225D073449AB2624512
:10276000E8D290F800E070444278052A02D18278DD
:102770008A4218D073449AB26245DBD290F800E0E6
:1027800070444278052A02D182788A420BD0734481
:102790009AB26245CED290F800E070444278052AA1
:1027A000CAD0CDE7002080BD10B5002868D00378DE
:1027B000B3B100F1020E4FF0000C00BF1EF8013C57
:1027C00093B19EF800309BB19EF80130A3B19EF802
:1027D00002300CF1040C002B0EF1040EEED10DE0D2
:1027E0004FF0000C0AE000BF4CF0010C06E000BF07
:1027F0004CF0020C02E000BF4CF0030C5FFA8CFCC2
:10280000022303EB4C03138003220B704A7090F8F1
:1028100000E0BEF1000F33D0841C02224FF0000C08
:102820001AE000BF101DC0B20B5440F0010001F8C7
:1028300000C06378002B08BF10BD901DC0B20B54C0
:1028400040F0010001F800C094F802E00832BEF147
:10285000000F04F1040413D0D3B201F803E043F0F5
:10286000010301F803C014F8013C4BB1901CC0B245
:102870000B5440F0010001F800C02378002BD1D1A7
:1028800010BD0000002804BF032070470023C0F8DB
:10289000B832C0F8C4320029C0F8D03218BFC0F82E
:1028A000B412012180F89C12027000F0D3B800002D
:1028B00080B5D0F8C802FEF7D5F840F20032C1006A
:1028C000C0F2013222FA01F1032888BF0321C8B205
:1028D00080BD000080B5D0F8C802FEF79BF840F23A
:1028E0000032C100C0F2013222FA01F1032888BF90
:1028F0000321C8B280BD0000B0B5044691B194F880
:102900009C02032851D1D4F8B8024269002A4CD065
:102910000020C4F8D40220469047002808BF0020B9
:10292000B0BD00BFD4F89402022837D1D4E9070122
:1029300088420DD9431A204611461A46E361FFF733
:1029400093FD204600210022002300F009F925E034
:1029500010D1A16981420DD3D4F89802814209D2E5
:102960002046002100220025FFF77EFDC4F8985282
:10297000E7E700BF94F89C02032808D1D4F8B80216
:10298000C16821B10020C4F8D402204688472046FF
:10299000802100F08BF92046FFF788FD94F8A00213
:1029A00000281CBF002084F8A0020020B0BD000059
:1029B00010B5044681B194F89C0203281FD1D4F8C5
:1029C000B8028269DAB10020C4F8D40220469047E8
:1029D000002808BF002010BDD4F8940203280ED1AF
:1029E000D4E9570398420DD9C01AC4F85C01984243
:1029F00038BF0346204611461A46FFF72DFD00203A
:102A000010BD00BF94F89C02032808D1D4F8B80286
:102A1000016921B10020C4F8D4022046884720462D
:102A2000FFF75EFD002010BD0020704780B501213A
:102A300080F89C12D0F8B81231B14A6801799047F9
:102A4000002818BF032080BD002080BDD0F8C80238
:102A5000FEF73CB810B5017811B1002010BD00BFE1
:102A600041F66001C2F20001C1F80805C0F8C812C1
:102A70004FF0A0400422C1E9000202200022C1E977
:102A80000302C1E906020846C1E90822C1E90B2296
:102A9000FEF77CFD002818BFFDF772FD41F66004CB
:102AA000C2F2000420468021FDF71CFF20460021D1
:102AB0004022FDF71BFF204601218022FDF716FF73
:102AC000002010BD4AB2D0F8C80201F07F0101EB2E
:102AD000C10100EB810000F27E21002A48BF00F115
:102AE0003E0108787047000080B5D0F8D42200EB92
:102AF0008202D2F8B8224AB190F89C32032B02D15C
:102B0000126A02B19047002080BD00BF032080BD43
:102B100080B5D0F8D42200EB8202D2F8B8224AB1B4
:102B200090F89C32032B02D1526A02B190470020E8
:102B300080BD00BF032080BD80B59446D0F8C80298
:102B40001A466346FDF7CCFF40F20032C100C0F2E6
:102B5000013222FA01F1032888BF0321C8B280BDE7
:102B600080B5D0F8C802FDF7EFFF40F20032C10097
:102B7000C0F2013222FA01F1032888BF0321C8B252
:102B800080BD0000F0B581B00126002580F89C6270
:102B9000C0F8945204464560D0F8B802C4F8A45274
:102BA00084F8A05258B1426842B1204600219047B3
:102BB0000546002818BF032501E000BF0025204678
:102BC0000021002240234027FFF7B6FF2046802146
:102BD00000224023A4F86461C4F86071FFF7ACFFE1
:102BE000A6842846276201B0F0BD000090F89C1230
:102BF000042904BF90F89D1280F89C1200207047B1
:102C000080B590F89C12032906D1D0F8B81219B1FA
:102C1000C969002918BF8847002080BD02460020EE
:102C20001174704780B5D0F8C802FEF7ADFD40F2D0
:102C30000032C100C0F2013222FA01F1032888BF3C
:102C40000321C8B280BD0000B0B500F2AA25044639
:102C5000284600F06BF80120C4F8940294F8AA0208
:102C6000B4F8B02200F01F010229C4F8982209D05C
:102C700001290DD091B920462946BDE8B04000F0A9
:102C80008DB800BF20462946BDE8B04000F040BAEC
:102C900020462946BDE8B04000F0F4BA00F08001BB
:102CA0002046BDE8B04000F001B8000080B5D0F883
:102CB000C802FDF76FFF40F20032C100C0F20132DE
:102CC00022FA01F1032888BF0321C8B280BD0000A9
:102CD00080B5D0F8C802FEF773FD40F20032C100A3
:102CE000C0F2013222FA01F1032888BF0321C8B2E1
:102CF00080BD0000014690F89C02042281F89D02EC
:102D0000002081F89C22704780B5D0F8C802FDF7FA
:102D10007FFF40F20032C100C0F2013222FA01F11D
:102D2000032888BF0321C8B280BD00000A78027062
:102D30004A7842704A8842808A888280C988C180E5
:102D40007047000010B582B004460020ADF80600C0
:102D5000B1B1D4F8D42204F52E70C4F8B81250F8EA
:102D60002200C16A21B10DF106008847C4F8D002E3
:102D7000D4F8D8020130C4F8D802002002B010BD47
:102D8000032002B010BD0000D0F8B822002A04BF12
:102D90000020704712681047FFF79ABFB0B582B0A5
:102DA0000D460978044611F0600111D0402901D088
:102DB00020292FD1D4F8D402294604EB8000D0F882
:102DC000B8028268204602B0BDE8B040104700BF9C
:102DD0006878092800F2D080DFE800F00628CE3AB3
:102DE000CE4666CE7E9200BF94F89C02013802283F
:102DF00000F2C280E888022840F0BE80D4F8A40225
:102E00000322002808BF0122214641F80C2F20464A
:102E1000022263E120468021FFF748FF204600217F
:102E20000025FFF743FF284602B0B0BD94F89C028E
:102E30000138022800F2A080688800250128F2D11C
:102E40002046C4F8A452FFF74BFB284602B0B0BDA1
:102E50006888022800F08680012840F08D800120DB
:102E6000C4F8A40240E100BFA888002840F0848094
:102E7000E888002840F0808068887F2800F27C8005
:102E800094F89C12032900F07780C5B284F89E0262
:102E900020462946FFF7C6FE2046FFF721FB002DFE
:102EA0000CBF01200220EFE068884FF0FF3101EBFA
:102EB000102100220629ADF8062000F21D81DFE86E
:102EC00011F00700670075001B011B0183008F00D4
:102ED000D4F8B4020268F1E0E88801284CD194F8F3
:102EE0009C02411E022941D20025214641F8085F7B
:102EF00020460122FFF7E6FA284602B0B0BD00BF27
:102F0000688840F25815C2F2000510F0FE0F2870D4
:102F10000CD020468021FFF7C9FE20460021FFF794
:102F2000C5FE0325284602B0B0BD00BF94F89C2220
:102F3000C1B2032A62D0022A40F08280002900F048
:102F4000D38020466160FFF71FFF002800F09880C3
:102F5000054620468021FFF7A9FE20460021FFF705
:102F6000A5FE67E0687984F8A002BDE0032803D1DC
:102F7000211D20460122B1E020468021FFF796FE68
:102F8000204600210025FFF791FE284602B0B0BD83
:102F9000217CD4F8B80200290CBF816AC16A0DF106
:102FA000060088470146022026E000BFC0B205287F
:102FB00000F2A280DFE800F0046E72767A7E00BF35
:102FC000D4F8B402426878E0207C002840F0948075
:102FD000D4F8B802416B0DF10600884772E000BFDB
:102FE000207C002840F08880D4F8B802016B0DF1F5
:102FF0000600884701460720487064E081B3606896
:10300000884271D0C1B22046FFF718FA29782046CD
:103010006160FFF7B9FE002866D005462046802192
:10302000FFF744FE20460021FFF740FE21792046AD
:10303000FFF704FA022084F89C02284602B0B0BDD3
:1030400020468021FFF732FE20460021FFF72EFEAA
:1030500029782046FFF7F2F90325284602B0B0BDD3
:10306000022084F89C026160204600210025FFF7C1
:10307000E5F92046FFF734FA284602B0B0BD00BF9C
:103080002046FFF72DFA032084F89C0200252846ED
:1030900002B0B0BDD4F8B40282680EE0D4F8B40235
:1030A000C2680AE0D4F8B402026906E0D4F8B402B7
:1030B000426902E0D4F8B4028269EAB1207C0DF1E1
:1030C000060190470146EA8872B1BDF8060098B142
:1030D000904238BF02462046ADF80620FFF7F2F9CD
:1030E0000025284602B0B0BD2046FFF7F9F90025BB
:1030F000284602B0B0BD00BF20468021FFF7D6FDB4
:1031000020460021FFF7D2FD0025284602B0B0BDC1
:1031100070B50E460978357911F0600104460BD080
:10312000402902D0202940F07B8020462946FFF725
:103130008FF9D8B1002070BD707828B301283BD03A
:1031400003286DD194F89C02032839D1708840B9C6
:1031500015F07F0005D0F08818B920462946FFF702
:10316000A5FD2046FFF7BCF9002070BDD4F8B802D9
:1031700082680020002AC4F8D402DBD02046314601
:10318000BDE87040104700BF94F89C02032825D08A
:10319000022808BF5FEA456042D115F0800004F1C3
:1031A00014014FF0140004BF4FF4AA7004F5AA7183
:1031B0000022225020465FE094F89C02032839D078
:1031C00002282DD168062BD020462946FFF76EFD38
:1031D00020468021FFF76AFD002070BD05F00F003A
:1031E00000EB8000802D04EB80002CBF808CB0F8B9
:1031F0006401A8B105F07F0000EB800004EB8000C3
:1032000000F11406802D38BF00F5AA7668062FD08D
:1032100020462946FFF756FC002818BF012028E069
:1032200020468021FFF742FD20460021FFF73EFDAA
:10323000002070BD708800287FF47CAF680603D042
:1032400020462946FFF734FB2046FFF749F9204680
:103250002946FFF7FDF800287FF46CAFD4F8B802D8
:1032600082680020002AC4F8D4027FF487AF61E7A7
:1032700000203060204631460222FFF723F900206B
:1032800070BD0000B0B50D460978044611F060012C
:1032900018BF402914D194F89C020138022803D8A1
:1032A000A88810F0FE0F19D020468021FFF7FEFC01
:1032B000204600210025FFF7F9FC2846B0BD00BFDD
:1032C0002029E8D020468021FFF7F0FC204600218D
:1032D0000025FFF7EBFC2846B0BD00BFC1B2204679
:1032E000FFF7B8F810B10320B0BD00BFD4F8B802A2
:1032F0008268002AF7D00020C4F8D402204629466C
:103300009047E9880546002908BF002DE3D12046F3
:10331000FFF7E6F80020B0BD7047000040F25C30D7
:10332000C2F200007047000010B50A784B78D0F860
:103330001CE802F00F04012B4FEA421C18D10123B4
:10334000A34043EA0E03C0F81C386044D0F80039AB
:103350001B0428D4CB6800F51060097904686FF36A
:10336000DF2343EA814144EA8252114316E000BF61
:103370004FF48032A24042EA0E02C0F81C2860449A
:10338000D0F8002B12040ED4CA6800F53060097919
:103390006FF3DF22036842EA8141194341F0805113
:1033A00041F400410160002010BD00000146D0F84A
:1033B000000940F2FF729043C1F80009D1F80408F7
:1033C00040F480720020C1F80428704782B004994C
:1033D000DDF808C0012940F64051C0F203016FD169
:1033E000826B4FF6BF7322F480328263C268CFF6DD
:1033F000BD731A40C260C2680B9B22F44012012BBD
:10340000C26003D1C26842F48012C26000220092FE
:10341000009A01320092009A8A4200F2A980026961
:10342000002A1ED4009A01320092009A8A4200F2C9
:103430009F800269002A14D4009A01320092009AF7
:103440008A4200F295800269002A0AD4009A013269
:103450000092009A8A4200F28B800269B2F1FF3F2B
:10346000D6DC00220092026942F001020261009A59
:1034700001320092009A8A427AD80269D2071AD0A1
:10348000009A01320092009A8A4271D80269D207EA
:1034900011D0009A01320092009A8A4268D80269DB
:1034A000D20708D0009A01320092009A8A425FD86F
:1034B0000269D207DBD10021BCF1010F72D169E0B2
:1034C000C268089B42F04002C26000220192019A49
:1034D00001320192019A8A4250D80269002A1BD413
:1034E000019A01320192019A8A4247D80269002A60
:1034F00012D4019A01320192019A8A423ED802699D
:10350000002A09D4019A01320192019A8A4235D8DF
:103510000269B2F1FF3FDADC00220192026942F057
:1035200001020261019A01320192019A8A4225D870
:103530000269D2071AD0019A01320192019A8A4295
:103540001CD80269D20711D0019A01320192019A66
:103550008A4213D80269D20708D0019A0132019237
:10356000019A8A420AD80269D207DBD1002106E01B
:103570000321BCF1010F15D10CE000BF0321826BC8
:10358000002B14BF22F4803242F480328263BCF1FB
:10359000010F07D1826842F006028260826842F021
:1035A00020028260084602B07047000080B54A7869
:1035B0000978012A4FEA41122AD10244D2F800398F
:1035C00047F6000CCEF6334C02F51062002B4FF09C
:1035D000010E07D5136843F000631360136843F0CE
:1035E0008043136001F00F01D0F83C380EFA01F16E
:1035F0008B43C0F83C38D0F81C3823EA0101C0F8EE
:103600001C18106800EA0C010020116080BD00BF8A
:10361000831803F53062D3F800EB47F60003CEF6CB
:10362000334303F1707CBEF1FF3F4FF4803ED9DCA1
:10363000D0E700000146D0F8000E20F00300C1F8EA
:10364000000ED1F8040820F002020020C1F804287E
:10365000704700000146D0F8000E20F00300C1F8CA
:10366000000ED1F8040840F002020020C1F804283E
:10367000704700002DE9F04F83B0DDF84C800E9FBD
:103680000022B8F1000FC0F80421C0F80821C0F8EA
:103690000C21C0F81021C0F81421C0F81821C0F87E
:1036A0001C21C0F82021C0F82421C0F82821C0F82E
:1036B0002C21C0F83021C0F83421C0F83821C0F8DE
:1036C0003C210BD0826B00F5006B22F40012826368
:1036D000826B42F40022826314E000BFD0F8042819
:1036E00000F5006B42F00202C0F80428826B42F43D
:1036F00000128263826B22F400228263866B26F4BE
:10370000802686630026C0F8006ED0F80068012F7E
:10371000C0F8006806D1DBF80070002B18BF47F036
:10372000010703E0DBF8003043F00307DDF83CE07D
:10373000DDF8309040F64055C0F203050023C0F894
:1037400000780193019B01330193019BAB4249D85F
:103750000369002B1BD4019B01330193019BAB42F6
:1037600040D80369002B12D4019B01330193019BC4
:10377000AB4237D80369002B09D4019B0133019375
:10378000019BAB422ED80369B3F1FF3FDADC002383
:1037900001934FF484630361019B01330193019B07
:1037A000AB421FD803699B061AD5019B01330193D5
:1037B000019BAB4216D803699B0611D5019B0133CF
:1037C0000193019BAB420DD803699B0608D5019B71
:1037D00001330193019BAB4204D803699B06DBD400
:1037E000002400E0012400230293029B0133029392
:1037F000029BAB4248D80369002B1BD4029B0133C8
:103800000293029BAB423FD80369002B12D4029B68
:1038100001330293029BAB4236D80369002B09D4D3
:10382000029B01330293029BAB422DD80369B3F193
:10383000FF3FDADC0023029310230361029B013374
:103840000293029BAB421FD80369DB061DD5029B86
:1038500001330293029BAB4216D80369DB0614D5F1
:10386000029B01330293029BAB420DD80369DB0636
:103870000BD5029B01330293029BAB4204D8036930
:10388000DB06DBD401E000BF01244FF0000A002971
:10389000CBF810A0CBF814A0CBF81CA000F0068148
:1038A000D0F800394FF0006707EA13134FF67F3264
:1038B0004E1EC0F80039C0F810A9C0F808297BD006
:1038C0008B1E032B06F003097246009404D22024B9
:1038D000B9F1000F3FD165E026F0030400234FF05B
:1038E000904E4FF67F384FF0000C00BF00EB0C05F8
:1038F000D5F82079043C0EEAE777C5F82079C5F8B9
:103900003039C5F82889D5F840790CF1800C0EEAD9
:10391000E777C5F84079C5F85039C5F84889D5F832
:1039200060790EEAE777C5F86079C5F87039C5F8AF
:103930006889D5F880790EEAE777C5F88079C5F807
:103940009039C5F88889D1D1DDF84C800CF120047C
:10395000B9F1000F26D000F510673D594FF0904C9B
:103960000CEAE5753B193D5100244FF67F3EB9F155
:10397000010F1C61C3F808E014D01D6AB9F1020FF1
:103980000CEAE5771F621C63C3F828E00AD01F6CBD
:103990004FF0904505EAE7771F6400271F654FF653
:1039A0007F379F64DDF83090009C002996464FF6E3
:1039B0007F324FF0006779D0D0F8003B002E07EA45
:1039C0001313C0F8003B4FF00003C0F8103BC0F8E1
:1039D000082B6BD00239032906F0030C04D22023F4
:1039E000BCF1000F3DD161E0009426F003040023F8
:1039F0004FF090474FF67F36002100BF4518D5F8AD
:103A0000202B043C07EAE272C5F8202BC5F8303BB6
:103A1000C5F8286BD5F8402B01F1800107EAE27266
:103A2000C5F8402BC5F8503BC5F8486BD5F8602B5E
:103A300007EAE272C5F8602BC5F8703BC5F8686B01
:103A4000D5F8802B07EAE272C5F8802BC5F8903BC9
:103A5000C5F8886BD2D1009C01F12003BCF1000FA6
:103A600024D000F53062D6584FF0904707EAE6764A
:103A7000D118D65000264FF67F33BCF1010F0E61EE
:103A80008B6013D00A6ABCF1020F07EAE2720A6285
:103A90000E638B620AD00A6C4FF0904303EAE27225
:103AA0000A6400220A654FF67F328A64DBF8101040
:103AB000B9F1000F21F48071CBF810106FF0804144
:103AC000C0F818A0416103D1816941F01001816102
:103AD000816943F60002C8F23C021143BEF1000FB7
:103AE000816103D0816941F008018161B8F1010F62
:103AF00005D1816941F0804141F004018161204696
:103B000003B0BDE8F08F00000146806820F001029C
:103B100000208A6070470000F0B54B7891F800C033
:103B2000012B27D18C6900EB4C1E00264FF6FF7548
:103B3000DEF81079CFF6F876CEF20705002C0EF5F8
:103B4000106349D03E401E611E692E401E61CE6842
:103B500005F10055B44284BF8E6134461E6925408C
:103B600046F400261E611E693543012A1D6141D1BC
:103B7000486926E000EB4C13D3F8100B6FF31200EA
:103B8000C3F8100BD3F8107B4FF6FF706FF3DC47D0
:103B9000C3F8107B8F69CE68002F03F5306318BF20
:103BA0008E61CE611F69CEF2070047F400271F61C6
:103BB00000F100501F6930403843012A186103D1D9
:103BC0000869002818BF58614FF00441186808437D
:103BD00018600020F0BD00BF07EA05041C611C69E5
:103BE00044F400241C611C6904EA06050024012A2F
:103BF0001D61BDD0DEF80019002C41F00441CEF863
:103C00000019E6D00CF00F01012202FA01F100F6D2
:103C10003403DBE7D0F840C043F20B03C4F654731F
:103C20009C4503D3D0F8003B002B1ED40023C0F8E2
:103C3000103BD0F8103B012943F40023C0F8103B9F
:103C4000D0F8103B43F01803C0F8103BD0F8103BFD
:103C500043F0C043C0F8103B07D1C0F8142BD0F894
:103C6000001B41F08021C0F8001B002070470000BD
:103C70004A780B78012A4FEA431210440ED1D0F84B
:103C8000002922F40012C0F80029097901F0FE0190
:103C9000022914D100F510600DE000BFD0F8002B10
:103CA00022F40012C0F8002B097901F0FE0102296C
:103CB00005D100F53060016841F0805101600020BD
:103CC000704700000A784B785101012B084407D156
:103CD000D0F80019002900F5106107D50BE000BFEE
:103CE000D0F8001B002900F5306104D41AB108682F
:103CF00020F080400860086840F4001200200A604C
:103D000070470000F0B54B7891F800C0012B31D11D
:103D1000D1F818E000EB4C14D4F81059BEF1000FA4
:103D200004F510634CD06FF312051D611D696FF32C
:103D3000DC451D61CD681F690EEB0506013EB6FB33
:103D4000F5F50026C1F6F87606EAC5453D431D6146
:103D500075461E696FF3DF4535431D610D79012DF1
:103D600039D11D6925F0C0451D611D6945F000551B
:103D700030E000BF00EB4C13D3F8107B6FF3120759
:103D8000C3F8107BD3F8107B6FF3DC47C3F8107BCC
:103D90008D69CC68002D03F5306379D02F19013F70
:103DA000B7FBF4F7BEB27443CC610026C1F6F876D7
:103DB0001D6906EAC7472F436FF3DF441F616EE0BA
:103DC0006FF3DC451D611D6945F400251D611D690A
:103DD0006FF312051D61012A12D14A69002A18BF2A
:103DE000C4F814290979012971D1D0F80818D4F838
:103DF0000009C9054CBF40F0805040F0005065E01C
:103E000000F510634FEA4C141D5945F004451D514F
:103E10000D79012D62D1D0F80858E658ED054FF024
:103E2000805558BF4FF000553543002AE55053D117
:103E30001FFA8EF2002A4FD0D51C4FF0FF330969CC
:103E400003EB950300F580504FEA0C32032BC5F3CA
:103E500081030FD3AF0827F0030400BF0F68043CB1
:103E600017504F6817508F681750CF6801F1100135
:103E70001750F3D183B30F68012B17502CD04F6824
:103E8000022B175028D0896811500020F0BD00BFC8
:103E90001F696FF3DF4427431F614FF400241F693C
:103EA000012A47EA04071F6103D10A69002A18BFE3
:103EB0005A61097901290AD1D0F808081968C005A2
:103EC0004FF0805058BF4FF00050084318604FF03B
:103ED00004411868084318600020F0BDBEF1000FCF
:103EE000FAD00CF00F01012202FA01F100F63403BE
:103EF000EFE7000081B0002200924A780978012A99
:103F00004FEA41113AD100F510625058B0F1FF3F2D
:103F10003ADC885842F2107340F0006088508858AC
:103F200040F08040885000980130009000989842FE
:103F300064D88858B0F1FF3F26DC0098013000902B
:103F4000009898425AD88858B0F1FF3F1CDC00987E
:103F5000013000900098984250D88858B0F1FF3F47
:103F600012DC0098013000900098984246D888589A
:103F700000284FF00000D6D43DE000BF00F53062CD
:103F80005058B0F1FF3F03DD002001B0704700BF83
:103F9000885842F2107340F000608850885840F012
:103FA000804088500098013000900098984225D8B1
:103FB0008858B0F1FF3FE7DC00980130009000988E
:103FC00098421BD88858B0F1FF3FDDDC00980130E3
:103FD00000900098984211D88858B0F1FF3FD3DC88
:103FE0000098013000900098984207D8885800281F
:103FF0004FF00000D6D401B0704700BF012001B0DF
:10400000704700000146806840F0010200208A608D
:104010007047000081B040F64052C0F20302002316
:104020000093009B01330093009B93424AD803699D
:10403000002B1BD4009B01330093009B934241D87B
:104040000369002B12D4009B01330093009B934221
:1040500038D80369002B09D4009B01330093009BDF
:1040600093422FD80369B3F1FF3FDADC89010023C3
:104070002031009301610099013100910099914232
:1040800020D8016989061AD500990131009100995B
:10409000914217D80169890611D500990131009123
:1040A000009991420ED80169890608D5009901311D
:1040B00000910099914205D801698906DBD400205E
:1040C00001B07047032001B070470000D0F8080825
:1040D00000F0060180074FF0020058BF0F200029B2
:1040E00008BF084670470000406900F001007047B3
:1040F000D0F81818D0F81C08084080B270470000AB
:10410000D0F81818D0F81C080840000C70470000C0
:10411000D0F810C8D0F8343801F00F0223FA02F2B8
:10412000D20100EB4110D2B2D0F8080942EA0C01EA
:104130000840704700EB4111D1F8081BD0F8140873
:1041400008407047416980690840704710B593087E
:1041500002F0030E2CD05A1E032A03F0030C0FD3D7
:1041600023F003034FF480528458043B0C608458BE
:104170004C6084588C608458CC6001F11001F3D1FC
:10418000BCF1000F14D04FF4805284580B46BCF1A0
:10419000010F43F8044B05D11946BEF1000F0AD1B7
:1041A0001EE000BF8258BCF1020F4A601AD10831EC
:1041B000BEF1000F14D04FF4805280580A46BEF171
:1041C000010F02F8010B04BF104610BD020ABEF138
:1041D000020F4A7004BF881C10BD000C88700331A8
:1041E000084610BD4FF4805282588A600C31BEF1EF
:1041F000000FE0D1F4E70000B0B50446C06820F03D
:10420000C040E06091B1012926D1E068002540F06E
:104210000050E0600120FCF7B9F96069C00705F1C2
:10422000010014D1312D0546F4D310E0E0680025DB
:1042300040F08040E06000BF0120FCF7A7F9606912
:10424000C00705F1010002D0312D0546F4D3323804
:10425000B0FA80F04009B0BD0120B0BD0246D0F8F0
:10426000000801F07F0120F4FE60C2F80008D2F8D7
:10427000000840EA01110020C2F800187047000051
:10428000022A02460ED145F24030CFF6277043F2A3
:1042900000530844C0F20C0398420FD24FF4705000
:1042A00002E000BF4FF41050D16821F47051D1608A
:1042B000D16801430020D160704700BF41F64060E3
:1042C000CFF61B7044F240230844C0F20F0398421B
:1042D00002D24FF46050E7E7A1F5740044F6807312
:1042E000A0F51050C0F21203984203D24FF4505080
:1042F000DAE700BFA1F183704DF22063A0F5E7403B
:10430000C0F21303984203D24FF44050CCE700BFF1
:104310004BF26060CFF6E5604EF260330844C0F2C5
:104320001603984202D24FF43050BDE74DF20030F0
:10433000CFF6CE6047F240730844C0F21B039842A8
:1043400002D24FF42050AFE745F6C030CFF6B3604D
:1043500049F2C0130844C0F22103984202D24FF43C
:104360001050A1E7A1F1B77047F22053A0F55850C3
:10437000C0F23803984203D24FF4005094E700BFD4
:1043800045F2E040CFF6596049F6E0430144C0F2FF
:1043900041034FF4C050994238BF4FF4E05083E7D7
:1043A00010B5DDF808C0BCF1000F2CD15BB303F1F0
:1043B000030E4FF0FF3303EB9E0300F5805412030E
:1043C000032BCEF3810C0FD34FEA9E0323F003039C
:1043D0000868043B10514868105188681051C8683B
:1043E00001F110011051F3D1BCF1000F0BD008689E
:1043F000BCF1010F105106D04868BCF1020F1051FA
:104400001CBF88681051002010BD0000FEE70000AE
:1044100086B010480DF1080C01900EA0031D0ECBC4
:1044200000698CE80E000590FCF7ACF9FDF726FD5D
:10443000FDF7BEFCFDF7D8FC01AC00BF2046FBF742
:104440008BFF81B22046FCF77DF84FF4FA70FCF741
:104450009DF8F3E748656C6C6F20576F726C6420B1
:104460000D0A000000000000F1EE100A4FF6FF7187
:10447000C0F2C03120EA010040F04070E1EE100AC5
:10448000704700000000000000000102030406075E
:1044900008090000B844000800000020F8000000EF
:1044A000C4010008B0450008F8000020787C000036
:1044B000E001000800000000010000001000000002
:1044C0001D250008552500086525000891250008D0
:1044D000BD250008F92400082D2500080024F4005B
:1044E0009D210008F51F0008FD22000800000000C3
:1044F00051200008411F0008B91F000800000000FB
:104500000000000000000000F12000089D200008CD
:10451000492100088D20000809024300020100C063
:104520003209040000010202010005240010010507
:10453000240100010424020205240600010705826B
:104540000308001009040100020A00000007050129
:104550000240000007058102400000000A06000238
:1045600000000040010000001201000200000040B5
:10457000830480C10002010203010000CD04000891
:10458000C904000865040008F90400084105000892
:10459000040309041A0300000000000000000000EA
:1045A000000000000000000000000000000000000B
:040000050800018965
:00000001FF
